:020000040800F2
:10000000005000201535000891340008973400088E
:100010009D340008A3340008A93400080000000043
:10002000000000000000000000000000AF340008E5
:10003000BB34000800000000C7340008D3340008B7
:100040005D3500085D3500085D3500085D35000848
:100050005D3500085D3500085D3500085D35000838
:100060005D3500085D3500085D3500085D35000828
:100070005D3500085D3500085D3500085D35000818
:100080005D3500085D3500085D3500085D35000808
:100090005D3500085D3500085D3500085D350008F8
:1000A0005D3500085D3500085D3500085D350008E8
:1000B0005D3500085D3500085D3500085D350008D8
:1000C0005D3500085D3500085D3500085D350008C8
:1000D0005D350008E1340008F53400085D3500089E
:1000E0005D3500085D3500085D3500080000000042
:1000F0000000000000000000000000000000000000
:0C01000000000000000000005FF808F1A3
:10010C0010B5054C237833B9044B13B10448AFF345
:10011C0000800123237010BD70000020000000003F
:10012C00B835000808B5034B1BB103490348AFF3BE
:10013C00008008BD0000000074000020B8350008E5
:10014C0080B500AF084B1B68074A43F010031360DF
:10015C00032000F047F9002000F008F803F0DCF869
:10016C000023184680BD00BF0020024080B582B03D
:10017C0000AF7860124B1A68124B1B7819464FF47B
:10018C007A73B3FBF1F3B2FBF3F3184600F05FF9AB
:10019C000346002B01D001230EE07B680F2B0AD8FD
:1001AC00002279684FF0FF3000F027F9064A7B688F
:1001BC001360002300E0012318460837BD4680BDBC
:1001CC006C000020040000200000002080B400AF70
:1001DC00054B1B781A46054B1B681344034A1360E6
:1001EC0000BFBD4680BC7047040000208C0000207E
:1001FC0080B400AF024B1B681846BD4680BC7047EC
:10020C008C00002080B584B000AF7860FFF7F0FF61
:10021C00B8607B68FB60FB68B3F1FF3F05D00A4B0D
:10022C001B781A46FB681344FB6000BFFFF7E0FF26
:10023C000246BB68D31AFA689A42F7D800BF00BFCF
:10024C001037BD4680BD00BF0400002080B485B0CF
:10025C0000AF78607B6803F00703FB600C4BDB6836
:10026C00BB60BA684FF6FF031340BB60FB681A0211
:10027C00BB68134343F0BF6343F40033BB60044AD1
:10028C00BB68D36000BF1437BD4680BC704700BF4D
:10029C0000ED00E080B400AF044BDB681B0A03F0F8
:1002AC0007031846BD4680BC704700BF00ED00E058
:1002BC0080B483B000AF0346FB7197F90730002B75
:1002CC000BDBFB7903F01F02064997F907305B093A
:1002DC00012000FA02F241F8232000BF0C37BD4682
:1002EC0080BC704700E100E080B483B000AF0346EF
:1002FC003960FB7197F90730002B0ADB3B68DAB2E7
:10030C000C4997F907301201D2B20B4483F8002341
:10031C000AE03B68DAB20849FB7903F00F03043BAF
:10032C001201D2B20B441A7600BF0C37BD4680BC0A
:10033C00704700BF00E100E000ED00E080B489B040
:10034C0000AFF860B9607A60FB6803F00703FB61EB
:10035C00FB69C3F10703042B28BF0423BB61FB69B2
:10036C000433062B02D9FB69033B00E000237B61BD
:10037C004FF0FF32BB6902FA03F3DA43BB681A4051
:10038C007B699A404FF0FF317B6901FA03F3D94343
:10039C007B680B40134318462437BD4680BC70471E
:1003AC0080B582B000AF78607B68013BB3F1807F91
:1003BC0001D301230FE00A4A7B68013B53600F21F4
:1003CC004FF0FF30FFF790FF054B00229A60044B73
:1003DC0007221A60002318460837BD4680BD00BFAF
:1003EC0010E000E080B582B000AF78607868FFF76D
:1003FC002DFF00BF0837BD4680BD80B586B000AF6D
:10040C000346B9607A60FB7300237B61FFF742FF00
:10041C0078617A68B9687869FFF790FF024697F9B6
:10042C000F3011461846FFF75FFF00BF1837BD4667
:10043C0080BD80B582B000AF0346FB7197F90730E1
:10044C001846FFF735FF00BF0837BD4680BD80B5A5
:10045C0082B000AF78607868FFF7A2FF03461846B9
:10046C000837BD4680BD80B485B000AF78600023EE
:10047C00FB737B6893F82130DBB2022B08D07B68CE
:10048C0004229A637B68002283F82020012320E059
:10049C007B681B681A687B681B6822F00E021A6066
:1004AC007B681B681A687B681B6822F001021A6063
:1004BC007B681A6C7B68DB6B012101FA02F25A60D3
:1004CC007B68012283F821207B68002283F820209E
:1004DC00FB7B18461437BD4680BC704780B584B092
:1004EC0000AF78600023FB737B6893F82130DBB29C
:1004FC00022B05D07B6804229A630123FB7351E025
:10050C007B681B681A687B681B6822F00E021A60F5
:10051C007B681B681A687B681B6822F001021A60F2
:10052C007B681B68224A934229D07B681B68214A4E
:10053C00934222D07B681B681F4A93421AD07B6877
:10054C001B681E4A934212D07B681B681C4A93425C
:10055C000AD07B681B681B4A934202D14FF480136C
:10056C000EE04FF080730BE04FF4803308E04FF453
:10057C00805305E04FF4807302E0102300E0012368
:10058C00114A53607B68012283F821207B6800228A
:10059C0083F820207B685B6B002B03D07B685B6B44
:1005AC0078689847FB7B18461037BD4680BD00BF66
:1005BC00080002401C00024030000240440002408F
:1005CC00580002406C0002400000024080B48BB026
:1005DC0000AF7860396000237B6200233B6269E1E5
:1005EC0001227B6A02FA03F3FB613B681B68FA6920
:1005FC001340BB61BA69FB699A4240F058813B6871
:10060C005B689A4A93425ED0984A934275D8984A4E
:10061C00934258D0964A93426FD8964A934252D0FE
:10062C00944A934269D8944A93424CD0924A93424A
:10063C0063D8924A934246D0904A93425DD8122B8B
:10064C002AD8122B59D801A252F823F0D30600084D
:10065C00AD060008BF0600080107000807070008E0
:10066C000707000807070008070700080707000826
:10067C000707000807070008070700080707000816
:10068C000707000807070008070700080707000806
:10069C00B5060008C9060008794A934213D02CE02D
:1006AC003B68DB683B6229E03B68DB6804333B62F8
:1006BC0024E03B68DB6808333B621FE03B68DB6887
:1006CC000C333B621AE03B689B68002B02D104237D
:1006DC003B6213E03B689B68012B05D108233B620E
:1006EC007B68FA691A6109E008233B627B68FA6946
:1006FC005A6103E000233B6200E000BFBB69FF2BA3
:10070C0001D87B6801E07B6804337B61BB69FF2BFC
:10071C0002D87B6A9B0002E07B6A083B9B003B6132
:10072C007B691A680F213B6901FA03F3DB431A401A
:10073C00396A3B6901FA03F31A437B691A603B6817
:10074C005B6803F08053002B00F0B1804D4B9B692C
:10075C004C4A43F0010393614A4B9B6903F001033C
:10076C00BB60BB68484A7B6A9B08023352F8233053
:10077C00FB607B6A03F003039B000F2202FA03F376
:10078C00DB43FA681340FB607B68404A934213D00A
:10079C007B683F4A93420DD07B683E4A934207D018
:1007AC007B683D4A934201D1032306E0042304E015
:1007BC00022302E0012300E000237A6A02F0030224
:1007CC0092009340FA681343FB602F497B6A9B08A5
:1007DC000233FA6841F823203B685B6803F480130A
:1007EC00002B06D02D4B9A682C49BB6913438B60A8
:1007FC0006E02A4B9A68BB69DB43284913408B609F
:10080C003B685B6803F40013002B06D0234BDA68BB
:10081C002249BB691343CB6006E0204BDA68BB6905
:10082C00DB431E491340CB603B685B6803F4003329
:10083C00002B06D0194B5A681849BB6913434B60FF
:10084C0006E0164B5A68BB69DB43144913404B60F6
:10085C003B685B6803F48033002B21D00F4B1A6884
:10086C000E49BB6913430B6021E000BF000032103E
:10087C0000003110000022100000211000001210A6
:10088C00000011100010024000000140000801405F
:10089C00000C014000100140001401400004014014
:1008AC000B4B1A68BB69DB43094913400B607B6A2D
:1008BC0001337B623B681A687B6A22FA03F3002BD4
:1008CC007FF48EAE00BF00BF2C37BD4680BC704796
:1008DC000004014080B483B000AF78600B467B808D
:1008EC0013467B707B78002B03D07A887B681A6167
:1008FC0003E07B881A047B681A6100BF0C37BD4685
:10090C0080BC704780B586B000AF78607B68002BE8
:10091C0001D1012372E27B681B6803F00103002BF9
:10092C0000F08780924B5B6803F00C03042B0CD017
:10093C008F4B5B6803F00C03082B12D18C4B5B685C
:10094C0003F48033B3F5803F0BD1894B1B6803F460
:10095C000033002B6CD07B685B68002B68D10123C3
:10096C004CE27B685B68B3F5803F06D1804B1B681B
:10097C007F4A43F4803313602EE07B685B68002B66
:10098C000CD17B4B1B687A4A23F480331360784B71
:10099C001B68774A23F4802313601DE07B685B6837
:1009AC00B3F5A02F0CD1724B1B68714A43F4802312
:1009BC0013606F4B1B686E4A43F4803313600BE07B
:1009CC006B4B1B686A4A23F480331360684B1B68BB
:1009DC00674A23F4802313607B685B68002B13D079
:1009EC00FFF706FC386108E0FFF702FC02463B69A2
:1009FC00D31A642B01D9032300E25D4B1B6803F46B
:100A0C000033002BF0D014E0FFF7F2FB386108E064
:100A1C00FFF7EEFB02463B69D31A642B01D9032383
:100A2C00ECE1534B1B6803F40033002BF0D100E0D6
:100A3C0000BF7B681B6803F00203002B63D04C4B98
:100A4C005B6803F00C03002B0BD0494B5B6803F085
:100A5C000C03082B1CD1464B5B6803F48033002B32
:100A6C0016D1434B1B6803F00203002B05D07B68A7
:100A7C001B69012B01D00123C0E13D4B1B6823F006
:100A8C00F8027B685B69DB00394913430B603AE081
:100A9C007B681B69002B20D0364B01221A60FFF7B4
:100AAC00A7FB386108E0FFF7A3FB02463B69D31AAA
:100ABC00022B01D90323A1E12D4B1B6803F0020388
:100ACC00002BF0D02A4B1B6823F0F8027B685B6983
:100ADC00DB00274913430B6015E0264B00221A60FC
:100AEC00FFF786FB386108E0FFF782FB02463B69A3
:100AFC00D31A022B01D9032380E11D4B1B6803F091
:100B0C000203002BF0D17B681B6803F00803002B59
:100B1C003AD07B689B69002B19D0174B01221A60C5
:100B2C00FFF766FB386108E0FFF762FB02463B69A2
:100B3C00D31A022B01D9032360E10D4B5B6A03F03E
:100B4C000203002BF0D0012000F0CEFA1CE00A4B7F
:100B5C0000221A60FFF74CFB38610FE0FFF748FBEF
:100B6C0002463B69D31A022B08D9032346E100BF86
:100B7C00001002400000424280044242924B5B6AE9
:100B8C0003F00203002BE9D17B681B6803F004031C
:100B9C00002B00F0A6800023FB758B4BDB6903F068
:100BAC008053002B0DD1884BDB69874A43F080536F
:100BBC00D361854BDB6903F08053BB60BB680123B9
:100BCC00FB75824B1B6803F48073002B18D17F4B91
:100BDC001B687E4A43F480731360FFF709FB38618E
:100BEC0008E0FFF705FB02463B69D31A642B01D9D9
:100BFC00032303E1754B1B6803F48073002BF0D0C7
:100C0C007B68DB68012B06D16F4B1B6A6E4A43F085
:100C1C00010313622DE07B68DB68002B0CD16A4B5F
:100C2C001B6A694A23F001031362674B1B6A664A0D
:100C3C0023F0040313621CE07B68DB68052B0CD1EA
:100C4C00614B1B6A604A43F0040313625E4B1B6AE0
:100C5C005D4A43F0010313620BE05B4B1B6A5A4A7B
:100C6C0023F001031362584B1B6A574A23F0040309
:100C7C0013627B68DB68002B15D0FFF7B9FA38617B
:100C8C000AE0FFF7B5FA02463B69D31A41F2883203
:100C9C00934201D90323B1E04B4B1B6A03F00203CF
:100CAC00002BEED014E0FFF7A3FA38610AE0FFF74F
:100CBC009FFA02463B69D31A41F28832934201D91A
:100CCC0003239BE0404B1B6A03F00203002BEED185
:100CDC00FB7D012B05D13C4BDB693B4A23F0805358
:100CEC00D3617B68DB69002B00F08780364B5B6837
:100CFC0003F00C03082B61D07B68DB69022B46D117
:100D0C00334B00221A60FFF773FA386108E0FFF7E3
:100D1C006FFA02463B69D31A022B01D903236DE00B
:100D2C00294B1B6803F00073002BF0D17B681B6A06
:100D3C00B3F5803F08D1244B5B6823F400327B6809
:100D4C009B68214913434B601F4B5B6823F474125F
:100D5C007B68196A7B685B6A0B431B4913434B60C6
:100D6C001B4B01221A60FFF743FA386108E0FFF7CA
:100D7C003FFA02463B69D31A022B01D903233DE00B
:100D8C00114B1B6803F00073002BF0D035E0104BB7
:100D9C0000221A60FFF72CFA386108E0FFF728FAF6
:100DAC0002463B69D31A022B01D9032326E0064BDA
:100DBC001B6803F00073002BF0D11EE07B68DB692D
:100DCC00012B07D1012319E00010024000700040F4
:100DDC00600042420B4B5B68FB60FB6803F48032A3
:100DEC007B681B6A9A4206D1FB6803F470127B681D
:100DFC005B6A9A4201D0012300E0002318461837A1
:100E0C00BD4680BD0010024080B584B000AF786054
:100E1C0039607B68002B01D10123D0E06A4B1B6841
:100E2C0003F007033A689A4210D9674B1B6823F00A
:100E3C00070265493B6813430B60634B1B6803F067
:100E4C0007033A689A4201D00123B8E07B681B681B
:100E5C0003F00203002B20D07B681B6803F0040313
:100E6C00002B05D0594B5B68584A43F4E063536040
:100E7C007B681B6803F00803002B05D0534B5B68A1
:100E8C00524A43F460535360504B5B6823F0F002BA
:100E9C007B689B684D4913434B607B681B6803F070
:100EAC000103002B40D07B685B68012B07D1474BBB
:100EBC001B6803F40033002B15D101237FE07B6802
:100ECC005B68022B07D1414B1B6803F00073002BAE
:100EDC0009D1012373E03D4B1B6803F00203002B87
:100EEC0001D101236BE0394B5B6823F003027B6873
:100EFC005B68364913434B60FFF77AF9F8600AE0F8
:100F0C00FFF776F90246FB68D31A41F28832934216
:100F1C0001D9032353E02D4B5B6803F00C027B6873
:100F2C005B689B009A42EBD1274B1B6803F00703CD
:100F3C003A689A4210D2244B1B6823F007022249CC
:100F4C003B6813430B60204B1B6803F007033A68A4
:100F5C009A4201D0012332E07B681B6803F0040342
:100F6C00002B08D0194B5B6823F4E0627B68DB68CC
:100F7C00164913434B607B681B6803F00803002B76
:100F8C0009D0124B5B6823F460527B681B69DB0051
:100F9C000E4913434B6000F021F802460B4B5B6883
:100FAC001B0903F00F030A49CB5C22FA03F3094A2D
:100FBC001360094B1B681846FFF7D8F80023184636
:100FCC001037BD4680BD00BF00200240001002401B
:100FDC00103600086C0000200000002080B487B0A0
:100FEC0000AF0023FB600023BB6000237B61002368
:100FFC007B6000233B611E4B5B68FB60FB6803F06E
:10100C000C03042B02D0082B03D027E0194B3B61B7
:10101C0027E0FB689B0C03F00F03174AD35C7B6043
:10102C00FB6803F48033002B10D0114B5B685B0C16
:10103C0003F00103114AD35CBB607B680D4A03FBD0
:10104C0002F2BB68B2FBF3F37B6104E07B680C4AF1
:10105C0002FB03F37B617B693B6102E0054B3B6167
:10106C0000BF3B6918461C37BD4680BC704700BFAB
:10107C000010024000127A00FC3500080C36000803
:10108C0000093D0080B400AF024B1B681846BD46FA
:10109C0080BC70476C00002080B500AFFFF7F2FFFA
:1010AC000246054B5B681B0A03F007030349CB5C44
:1010BC0022FA03F3184680BD0010024020360008C7
:1010CC0080B500AFFFF7DEFF0246054B5B68DB0A1D
:1010DC0003F007030349CB5C22FA03F3184680BDE7
:1010EC00001002402036000880B485B000AF786054
:1010FC000A4B1B680A4AA2FB03235B0A7A6802FBB1
:10110C0003F3FB6000BFFB685A1EFA60002BF9D199
:10111C0000BF00BF1437BD4680BC70476C00002078
:10112C00D34D621080B582B000AF78607B68002B25
:10113C0001D1012342E07B6893F84130DBB2002BF4
:10114C0006D17B68002283F84020786802F006F90B
:10115C007B68242283F841207B681B68DA687B68F3
:10116C001B6822F40052DA60786800F0C5FD7B68D9
:10117C001B681A697B681B6822F490421A617B68B1
:10118C001B685A697B681B6822F02A025A617B68CB
:10119C001B68DA687B681B6842F40052DA607B6873
:1011AC0000225A647B68202283F841207B6820222D
:1011BC0083F842207B6800225A63002318460837C4
:1011CC00BD4680BD80B58AB002AFF860B9603B60A7
:1011DC001346FB8000237B61FB6893F84130DBB244
:1011EC00202B6DD1BB68002B02D0FB88002B01D1CA
:1011FC00012366E0FB6800225A64FB68212283F815
:10120C004120FEF7F5FF7861FB68FA889A84FB6849
:10121C00FA88DA84FB689B68B3F5805F08D1FB68B9
:10122C001B69002B04D10023FB61BB68BB6103E08D
:10123C00BB68FB610023BB612AE03B6800937B69C0
:10124C0000228021F86800F014FB0346002B01D02B
:10125C00032336E0FB69002B0BD1BB691B881A46B4
:10126C00FB681B68C2F308025A60BB690233BB619E
:10127C0007E0FB691A78FB681B685A60FB6901334D
:10128C00FB61FB68DB8C9BB2013B9AB2FB68DA8496
:10129C00FB68DB8C9BB2002BCFD13B6800937B6946
:1012AC0000224021F86800F0E4FA0346002B01D03C
:1012BC00032306E0FB68202283F84120002300E092
:1012CC00022318462037BD4680BD80B584B000AFE0
:1012DC00F860B9601346FB80FB6893F84230DBB2D0
:1012EC00202B12D1BB68002B02D0FB88002B01D124
:1012FC0001230BE0FB6800221A63FB881A46B968CD
:10130C00F86800F024FB034600E00223184610376F
:10131C00BD4680BD80B5BAB000AF78607B681B68F5
:10132C001B68C7F8E4307B681B68DB68C7F8E030E3
:10133C007B681B685B69C7F8DC300023C7F8D830C2
:10134C000023C7F8D430D7F8E43003F00F03C7F804
:10135C00D830D7F8D830002B0FD1D7F8E43003F0C1
:10136C002003002B09D0D7F8E03003F02003002B2A
:10137C0003D0786800F001FC5BE2D7F8D830002B82
:10138C0000F0DE80D7F8DC3003F00103002B06D12F
:10139C00D7F8E03003F49073002B00F0D180D7F82D
:1013AC00E43003F00103002B0BD0D7F8E03003F44A
:1013BC008073002B05D07B685B6C43F001027B686B
:1013CC005A64D7F8E43003F00403002B0BD0D7F8A1
:1013DC00DC3003F00103002B05D07B685B6C43F021
:1013EC0002027B685A64D7F8E43003F00203002B46
:1013FC000BD0D7F8DC3003F00103002B05D07B6851
:10140C005B6C43F004027B685A64D7F8E43003F059
:10141C000803002B11D0D7F8E03003F02003002B89
:10142C0005D1D7F8DC3003F00103002B05D07B6825
:10143C005B6C43F008027B685A647B685B6C002B26
:10144C0000F0F281D7F8E43003F02003002B08D031
:10145C00D7F8E03003F02003002B02D0786800F0BE
:10146C008CFB7B681B685B6903F04003002B14BF8B
:10147C0001230023DBB2C7F8D4307B685B6C03F02C
:10148C000803002B03D1D7F8D430002B4FD0786849
:10149C0000F096FA7B681B685B6903F04003002B35
:1014AC0041D07B681B681433C7F89C30D7F89C304C
:1014BC0053E8003FC7F89830D7F8983023F0400332
:1014CC00C7F8D0307B681B681433D7F8D020C7F826
:1014DC00A820C7F8A430D7F8A410D7F8A82041E862
:1014EC000023C7F8A030D7F8A030002BD9D17B68E7
:1014FC00DB6B002B13D07B68DB6B7E4A5A637B68FB
:10150C00DB6B1846FEF7EAFF0346002B16D07B6810
:10151C00DB6B5B6B7A68D26B104698470EE0786891
:10152C0000F093F90AE0786800F08FF906E078682B
:10153C0000F08BF97B6800225A6475E100BF73E1FF
:10154C007B681B6B012B40F04F81D7F8E43003F024
:10155C001003002B00F04881D7F8E03003F01003A3
:10156C00002B00F041810023BB607B681B681B686B
:10157C00BB607B681B685B68BB60BB687B681B6877
:10158C005B6903F04003002B00F0B6807B68DB6BDB
:10159C001B685B68A7F8BE30B7F8BE30002B00F0B4
:1015AC0045817B689B8DB7F8BE209A4280F03E81C6
:1015BC007B68B7F8BE20DA857B68DB6B9B69202BD8
:1015CC0000F088807B681B680C33C7F88830D7F82C
:1015DC00883053E8003FC7F88430D7F8843023F4C0
:1015EC008073C7F8B8307B681B680C33D7F8B82009
:1015FC00C7F89420C7F89030D7F89010D7F89420FB
:10160C0041E80023C7F88C30D7F88C30002BD9D1A7
:10161C007B681B6814337B677B6F53E8003F3B6729
:10162C003B6F23F00103C7F8B4307B681B6814339D
:10163C00D7F8B420C7F88020FB67F96FD7F8802063
:10164C0041E80023BB67BB6F002BE1D17B681B68B3
:10165C0014333B663B6E53E8003FFB65FB6D23F098
:10166C004003C7F8B0307B681B681433D7F8B02040
:10167C00FA66BB66B96EFA6E41E800237B667B6E38
:10168C00002BE3D17B68202283F842207B68002268
:10169C001A637B681B680C33FB64FB6C53E8003FDC
:1016AC00BB64BB6C23F01003C7F8AC307B681B68C1
:1016BC000C33D7F8AC20BA657B65796DBA6D41E80F
:1016CC0000233B653B6D002BE3D17B68DB6B18463D
:1016DC00FEF7C9FE7B6802225A637B689A8D7B6891
:1016EC00DB8D9BB2D31A9BB21946786800F0B6F822
:1016FC009CE000BF911A00087B689A8D7B68DB8D9B
:10170C009BB2D31AA7F8CE307B68DB8D9BB2002B33
:10171C0000F08E80B7F8CE30002B00F089807B680B
:10172C001B680C33BB63BB6B53E8003F7B637B6B69
:10173C0023F49073C7F8C8307B681B680C33D7F858
:10174C00C8207A643B64396C7A6C41E80023FB63F3
:10175C00FB6B002BE3D17B681B6814337B627B6AC9
:10176C0053E8003F3B623B6A23F00103C7F8C430E7
:10177C007B681B681433D7F8C4203A63FB62F96AA0
:10178C003A6B41E80023BB62BB6A002BE3D17B6858
:10179C00202283F842207B6800221A637B681B6836
:1017AC000C333B613B6953E8003FFB60FB6823F063
:1017BC001003C7F8C0307B681B680C33D7F8C02007
:1017CC00FA61BB61B969FA6941E800237B617B6905
:1017DC00002BE3D17B6802225A63B7F8CE3019464E
:1017EC00786800F03BF823E0D7F8E43003F080038E
:1017FC00002B09D0D7F8E03003F08003002B03D086
:10180C00786800F053F914E0D7F8E43003F04003A3
:10181C00002B0ED0D7F8E03003F04003002B08D09B
:10182C00786800F092F904E000BF02E000BF00E02D
:10183C0000BFE837BD4680BD80B483B000AF786090
:10184C0000BF0C37BD4680BC704780B483B000AF7E
:10185C00786000BF0C37BD4680BC704780B483B045
:10186C0000AF78600B467B8000BF0C37BD4680BC58
:10187C00704780B590B000AFF860B9603B6013461C
:10188C00FB7150E0BB6CB3F1FF3F4CD0BB6C002B39
:10189C0007D0FEF7ADFC02463B68D31ABA6C9A42ED
:1018AC0041D2FB681B680C33BB62BB6A53E8003F38
:1018BC007B627B6A23F4D073FB63FB681B680C337D
:1018CC00FA6B7A633B63396B7A6B41E80023FB62FA
:1018DC00FB6A002BE5D1FB681B6814337B617B69C9
:1018EC0053E8003F3B613B6923F00103BB63FB689A
:1018FC001B681433BA6B3A62FB61F9693A6A41E8C6
:10190C000023BB61BB69002BE5D1FB68202283F867
:10191C004120FB68202283F84220FB68002283F8D8
:10192C00402003230FE0FB681B681A68BB68134058
:10193C00BA689A420CBF01230023DBB21A46FB792A
:10194C009A429FD0002318464037BD4680BD80B4D4
:10195C0085B000AFF860B9601346FB80FB68BA68CD
:10196C009A62FB68FA889A85FB68FA88DA85FB68C4
:10197C0000225A64FB68222283F84220FB681B6910
:10198C00002B07D0FB681B68DA68FB681B6842F405
:10199C008072DA60FB681B685A69FB681B6842F04E
:1019AC0001025A61FB681B68DA68FB681B6842F02D
:1019BC002002DA60002318461437BD4680BC7047FD
:1019CC0080B495B000AF78607B681B680C337B6388
:1019DC007B6B53E8003F3B633B6B23F49073FB64DE
:1019EC007B681B680C33FA6C3A64FB63F96B3A6CDA
:1019FC0041E80023BB63BB6B002BE5D17B681B6804
:101A0C0014333B623B6A53E8003FFB61FB6923F0F4
:101A1C000103BB647B681B681433BA6CFA62BB624B
:101A2C00B96AFA6A41E800237B627B6A002BE5D134
:101A3C007B681B6B012B19D17B681B680C33FB601B
:101A4C00FB6853E8003FBB60BB6823F010037B646A
:101A5C007B681B680C337A6CBA617B617969BA69F3
:101A6C0041E800233B613B69002BE5D17B682022D8
:101A7C0083F842207B6800221A6300BF5437BD46AE
:101A8C0080BC704780B584B000AF78607B685B6ABF
:101A9C00FB60FB680022DA85FB680022DA84F868B8
:101AAC00FFF7D3FE00BF1037BD4680BD80B485B0B4
:101ABC0000AF78607B6893F84130DBB2212B3ED1CC
:101ACC007B689B68B3F5805F14D17B681B69002B26
:101ADC0010D17B681B6AFB60FB681B881A467B680D
:101AEC001B68C2F308025A607B681B6A9A1C7B68ED
:101AFC001A6208E07B681B6A591C7A6811621A78B2
:101B0C007B681B685A607B68DB8C9BB2013B9BB289
:101B1C007A681946D184002B0FD17B681B68DA6870
:101B2C007B681B6822F08002DA607B681B68DA68CD
:101B3C007B681B6842F04002DA60002300E002235D
:101B4C0018461437BD4680BC704780B582B000AFD4
:101B5C0078607B681B68DA687B681B6822F040023F
:101B6C00DA607B68202283F841207868FFF764FEF6
:101B7C00002318460837BD4680BD80B58CB000AF39
:101B8C0078607B6893F84230DBB2222B40F0AE8059
:101B9C007B689B68B3F5805F17D17B681B69002B52
:101BAC0013D10023FB627B689B6ABB627B681B685A
:101BBC005B689BB2C3F308039AB2BB6A1A807B685A
:101BCC009B6A9A1C7B689A6226E07B689B6AFB6224
:101BDC000023BB627B689B68B3F5805F07D07B6892
:101BEC009B68002B0AD17B681B69002B06D17B6894
:101BFC001B685B68DAB2FB6A1A7008E07B681B68CA
:101C0C005B68DBB203F07F03DAB2FB6A1A707B68A5
:101C1C009B6A5A1C7B689A627B68DB8D9BB2013B8A
:101C2C009BB27A681946D185002B5DD17B681B6805
:101C3C00DA687B681B6822F02002DA607B681B681C
:101C4C00DA687B681B6822F48072DA607B681B6838
:101C5C005A697B681B6822F001025A617B6820225A
:101C6C0083F842207B6800225A637B681B6B012B34
:101C7C0035D17B6800221A637B681B680C337B614F
:101C8C007B6953E8003F3B613B6923F010037B62A7
:101C9C007B681B680C337A6A3A62FB61F9693A6AB1
:101CAC0041E80023BB61BB69002BE5D17B681B6855
:101CBC001B6803F01003102B0AD10023FB607B6818
:101CCC001B681B68FB607B681B685B68FB60FB68C0
:101CDC007B689B8D19467868FFF7C0FD02E0786839
:101CEC0001F0CAFA002302E0002300E002231846A8
:101CFC003037BD4680BD000080B584B000AF786041
:101D0C007B681B681B6923F440517B68DA687B682D
:101D1C001B680A431A617B689A687B681B691A43C3
:101D2C007B685B691343BB607B681B68DB6823F4CF
:101D3C00B05323F00C037A681268B9680B43D36074
:101D4C007B681B685B6923F440717B689A697B68CC
:101D5C001B680A435A617B681B682C4A934203D167
:101D6C00FFF7AEF9F86002E0FFF796F9F860FA6851
:101D7C0013469B0013449A001A447B685B689B00D3
:101D8C00B2FBF3F3224AA2FB03235B091901FA68A5
:101D9C0013469B0013449A001A447B685B689B00B3
:101DAC00B2FBF3F21A4BA3FB02035B09642000FBAA
:101DBC0003F3D31A1B013233154AA2FB03235B092D
:101DCC0003F0F0031944FA6813469B0013449A007D
:101DDC001A447B685B689B00B2FBF3F20C4BA3FBD1
:101DEC0002035B09642000FB03F3D31A1B0132339B
:101DFC00074AA2FB03235B0903F00F027B681B68F5
:101E0C000A449A6000BF1037BD4680BD00380140BF
:101E1C001F85EB5180B584B000AF0346FB71FB7995
:101E2C00F82B00F03D81FB79FE2B00F0398197F9FE
:101E3C000730002B69DAFB7903F0F003902B0FD1FC
:101E4C009A4B01221A709A4B00221A70994B00225D
:101E5C001A70994B00221A70984B00221A701FE1CD
:101E6C00FB7903F0F003802B0FD1904B00221A70FA
:101E7C008F4B01221A708F4B00221A708E4B00224E
:101E8C001A708E4B00221A700AE1FB7903F0F003F2
:101E9C00C02B0FD1854B00221A70854B00221A7073
:101EAC00844B01221A70844B00221A70834B00223F
:101EBC001A70F5E0FB7903F0F003B02B0FD17B4BDC
:101ECC0000221A707A4B00221A707A4B00221A7078
:101EDC00794B01221A70794B00221A70E0E0FB79E1
:101EEC0003F0F003E02B40F0DB80704B00221A7003
:101EFC006F4B00221A706F4B00221A706E4B00222F
:101F0C001A706E4B01221A70CAE0684B1B78012BB9
:101F1C003BD10023FB736A4B1B785A1CD1B2684A25
:101F2C0011701946674AFB795354654B1B78022B89
:101F3C0029D1644B5B78002B0ED1624B1B780021AE
:101F4C00184600F0C1F85F4B1B785E4A5278114678
:101F5C00184600F0CBFB0DE05A4B1B7801211846BC
:101F6C0000F0B2F8574B1B78564A517800221846AD
:101F7C0000F014FC524B00221A70524B00221A70C3
:101F8C00504B00225A70FB7B8BE0494B1B78012B8A
:101F9C0022D10023FB734A4B1B785A1CD1B2484AFE
:101FAC0011701946474AFB795354454B1B78022B49
:101FBC0010D1444B1B78434A52781146184600F016
:101FCC0095FB3F4B00221A703E4B00221A703D4B82
:101FDC0000225A70FB7B64E0364B1B78012B1AD124
:101FEC000023FB73364B1B785A1CD1B2344A117048
:101FFC001946344AFB795354314B1B78022B08D1C8
:10200C002F4B00221A702F4B00221A702D4B0022DE
:10201C005A70FB7B45E0284B1B78012B1AD100230F
:10202C00FB73274B1B785A1CD1B2254A11701946E9
:10203C00244AFB795354224B1B78022B08D1204B9A
:10204C0000221A701F4B00221A701E4B00225A706D
:10205C00FB7B26E0194B1B78012B21D10023FB7352
:10206C00174B1B785A1CD1B2154A11701946154AD8
:10207C00FB795354124B1B78022B0FD1114B5B780D
:10208C001A460021002000F089FB0D4B00221A702B
:10209C000C4B00221A700B4B00225A70FB7B00E099
:1020AC00FB7B18461037BD4680BD00BF9600002054
:1020BC009700002098000020990000209A00002032
:1020CC00900000209400002080B584B000AF7860B0
:1020DC0039603B68012B73D10023FB606CE0704AC4
:1020EC00FB6813441B781A467B68934200F0D4803B
:1020FC006B4AFB6813441B78002B5AD17B68D9B20E
:10210C00674AFB6813440A461A70FB68082B4ED8C2
:10211C0001A252F823F000BF492100085521000804
:10212C00612100086D210008792100088521000833
:10213C00912100089F210008AD21000801220121F6
:10214C005848FEF7C7FB33E0012202215548FEF741
:10215C00C1FB2DE0012210215248FEF7BBFB27E00A
:10216C00012220214F48FEF7B5FB21E0012240213E
:10217C004C48FEF7AFFB1BE0012280214948FEF7DB
:10218C00A9FB15E001224FF400614648FEF7A2FBC3
:10219C000EE001224FF480514248FEF79BFB07E012
:1021AC0001224FF400413F48FEF794FB00E000BFD2
:1021BC0073E0FB680133FB60FB68082B8FDD6CE080
:1021CC003B68002B69D10023FB7261E0FB7A344A37
:1021DC00D35C1A467B68934257D1FB7A304A002174
:1021EC00D154FB7A082B4ED801A252F823F000BF31
:1021FC00212200082D22000839220008452200085F
:10220C00512200085D22000869220008772200088C
:10221C0085220008002201212248FEF75BFB33E0F7
:10222C00002202211F48FEF755FB2DE00022102151
:10223C001C48FEF74FFB27E0002220211948FEF72F
:10224C0049FB21E0002240211648FEF743FB1BE02E
:10225C00002280211348FEF73DFB15E000224FF4CD
:10226C0000611048FEF736FB0EE000224FF480515F
:10227C000C48FEF72FFB07E000224FF40041094801
:10228C00FEF728FB00E000BF07E0FB7A0133FB728E
:10229C00FB7A082B9AD900E000BF1037BD4680BDF1
:1022AC009C0000200008014080B584B000AF0346BC
:1022BC00FB710B46BB7113467B710023FB73FB79DF
:1022CC00012B4FD100224FF40071A748FEF702FBFF
:1022DC00BB79184600F04AF900224FF4C051A248CD
:1022EC00FEF7F8FA0023BB7302E0BB7B0133BB7330
:1022FC00BB7B052BF9D901224FF4C0519A48FEF74C
:10230C00E9FA0023BB7302E0BB7B0133BB73BB7BDD
:10231C00102BF9D901224FF400719348FEF7DAFA29
:10232C007B79184600F022F900224FF4C0518E48F8
:10233C00FEF7D0FA0023BB7302E0BB7B0133BB7307
:10234C00BB7B052BF9D901224FF4C0518648FEF70F
:10235C00C1FA0023BB7302E0BB7B0133BB73BB7BB5
:10236C006D2BF9D9FB79022B4FD100224FF4007160
:10237C007D48FEF7AFFABB79184600F0F7F800225B
:10238C004FF420517848FEF7A5FA0023BB7302E006
:10239C00BB7B0133BB73BB7B052BF9D901224FF4FB
:1023AC0020517148FEF796FA0023BB7302E0BB7B09
:1023BC000133BB73BB7B212BF9D901224FF4007184
:1023CC006948FEF787FA7B79184600F0CFF80022AF
:1023DC004FF420516448FEF77DFA0023BB7302E0F2
:1023EC00BB7B0133BB73BB7B052BF9D901224FF4AB
:1023FC0020515D48FEF76EFA0023BB7302E0BB7BF5
:10240C000133BB73BB7BDC2BF9D9FB79032B4FD18D
:10241C0000224FF400715448FEF75CFABB79184661
:10242C0000F0A4F800224FF490414F48FEF752FA06
:10243C000023BB7302E0BB7B0133BB73BB7B052B5F
:10244C00F9D901224FF490414748FEF743FA002393
:10245C00BB7302E0BB7B0133BB73BB7B212BF9D974
:10246C0001224FF400714048FEF734FA7B7918468C
:10247C0000F07CF800224FF490413B48FEF72AFA1A
:10248C000023BB7302E0BB7B0133BB73BB7B052B0F
:10249C00F9D901224FF490413348FEF71BFA00237F
:1024AC00BB7302E0BB7B0133BB73BB7BDC2BF9D969
:1024BC00FB79042B50D100224FF400712A48FEF70F
:1024CC0009FABB79184600F051F800224FF4084184
:1024DC002548FEF7FFF90023BB7302E0BB7B0133F9
:1024EC00BB73BB7B052BF9D901224FF408411E4865
:1024FC00FEF7F0F90023BB7302E0BB7B0133BB7327
:10250C00BB7B212BF9D901224FF400711648FEF741
:10251C00E1F97B79184600F029F800224FF40841C4
:10252C001148FEF7D7F90023BB7302E0BB7B0133E4
:10253C00BB73BB7B052BF9D901224FF408410A4828
:10254C00FEF7C8F90023BB7302E0BB7B0133BB73FE
:10255C00BB7BDC2BF9D901E00123FB73FB7B184619
:10256C001037BD4680BD00BF000C014080B485B063
:10257C0000AF0346FB710023FB720023FB60FB7969
:10258C0003F00103002B04D0FB6843F00103FB6054
:10259C0003E0FB6843F48033FB60FB7903F0020338
:1025AC00002B04D0FB6843F00203FB6003E0FB68E4
:1025BC0043F40033FB60FB7903F00403002B04D0DD
:1025CC00FB6843F00803FB6003E0FB6843F4002363
:1025DC00FB60FB7903F00803002B04D0FB6843F08D
:1025EC001003FB6003E0FB6843F48013FB60FB7992
:1025FC0003F01003002B04D0FB6843F02003FB60B6
:10260C0003E0FB6843F40013FB60FB7903F0200349
:10261C00002B04D0FB6843F04003FB6003E0FB6835
:10262C0043F48003FB60FB7903F04003002B04D0E0
:10263C00FB6843F08003FB6003E0FB6843F400039A
:10264C00FB6097F90730002B04DAFB6843F48073C6
:10265C00FB6003E0FB6843F08073FB60054AFB689A
:10266C0013610023FB60FB7A18461437BD4680BC0F
:10267C00704700BF000C014080B584B000AF03462A
:10268C00FB710023FB73FB79603BD9B2FB79164AD3
:10269C00DB0013445B88DBB21A460120FFF704FE13
:1026AC00FB79503BD9B2FB790F4ADB0013441B7901
:1026BC009B005BB243F020035AB2FB790A48DB0063
:1026CC0003445B881B125BB203F003035BB213433E
:1026DC005BB2DBB21A460120FFF7E6FDFB7B184626
:1026EC001037BD4680BD00BFA800002080B584B067
:1026FC0000AF03460A46FB711346BB710023FB7205
:10270C000023FB603FE0244AFB68DB0013445B784A
:10271C00FA799A4234D1204AFB6812F83330012BF3
:10272C002ED1FB68DBB2603BDBB2002219460120E4
:10273C00FFF7BAFDFB68DBB2503BDBB20022194657
:10274C000120FFF7B1FD144AFB68DB0013440022A3
:10275C005A70114AFB68DB00134400221A710E4AAE
:10276C00FB68DB00134400225A710B4AFB68DB0048
:10277C00134400225A80084AFB68002102F83310E7
:10278C00FB680133FB60FB68082BBCDDFB7A184649
:10279C001037BD4680BD00BFA800002090B585B0A5
:1027AC0000AF0346FB710B46BB7113467B710023D4
:1027BC00BB73FA79874BA3FB0213D9080B465B005A
:1027CC000B449B00D31ADBB202337B73FB79002BD7
:1027DC006FD10023FB7368E0FB7B7F4A12F8333028
:1027EC00012B5FD1FB7B7C4ADB0013445A78794B7D
:1027FC00A3FB0213D9080B465B000B449B00D31AB6
:10280C00DBB202337B737B793F2B24D87B7B734AFF
:10281C0052F8233099B27B79C3F140037A7B6F482D
:10282C0050F822007A7B023A6C4C54F82220821A1F
:10283C0002FB03F36A4A82FB03021A445211DB17B0
:10284C009B1A9AB2FB7B0A4491B2634ADB00134495
:10285C000A465A8022E07B7B604A52F8233099B2B8
:10286C007B79403B7A7B02325C4850F822007A7BC1
:10287C005A4C54F82220821A02FB03F3584A82FB6A
:10288C0003021A445211DB17D31A9AB2FB7B0A4487
:10289C0091B2514ADB0013440A465A80FB7B18461E
:1028AC00FFF7EAFEFB7B0133FB73FB7B082B93D911
:1028BC008BE00023FB7384E0FB7B474A12F8333038
:1028CC00002B07D0FB7B444ADB0013445B78FA797E
:1028DC009A4273D1FB7B404A012102F83310FB7BF7
:1028EC003D4ADB001344FA795A70FB79394AA2FB52
:1028FC000323DB08DAB2FB7B013AD1B2364ADB00A8
:10290C0013440A461A71BB79DB435A10FB7BD1B2D4
:10291C00314ADB0013440A465A717B793F2B24D889
:10292C007B7B2E4A52F8233099B27B79C3F140035A
:10293C007A7B2A4850F822007A7B023A274C54F8CA
:10294C002220821A02FB03F3254A82FB03021A445B
:10295C005211DB179B1A9AB2FB7B0A4491B21E4AA6
:10296C00DB0013440A465A8022E07B7B1B4A52F858
:10297C00233099B27B79403B7A7B0232174850F86E
:10298C0022007A7B154C54F82220821A02FB03F3A6
:10299C00134A82FB03021A445211DB17D31A9AB260
:1029AC00FB7B0A4491B20C4ADB0013440A465A8062
:1029BC00FB7B1846FFF760FEBB7B07E0FB7B01331C
:1029CC00FB73FB7B082B7FF677AFBB7B184614376A
:1029DC00BD4690BDABAAAAAAA800002020000020EA
:1029EC008320088280B500AF00224FF48061084834
:1029FC00FDF770FF0A20FDF705FC01224FF4806102
:102A0C000348FDF767FF0120FDF7FCFB00BF80BD0D
:102A1C00000C0140B0B58CB000AF9D4B3C461D4640
:102A2C000FCD0FC40FCD0FC495E8070084E8070045
:102A3C00202201210120FFF737FC20220121022056
:102A4C00FFF732FC202201210320FFF72DFC20226E
:102A5C0001210420FFF728FC0023FB6284E08D4A4F
:102A6C00FB6A13441B782033DBB23A68D2B21946A6
:102A7C000120FFF719FC874AFB6A13441B7840338B
:102A8C00DBB27A68D2B219460120FFF70DFC814AFD
:102A9C00FB6A13441B786033DBB2BA68D2B21946B6
:102AAC000120FFF701FC7B4AFB6A13441B78803B37
:102ABC00DBB2FA68D2B219460120FFF7F5FB754A72
:102ACC00FB6A13441B78203BDBB23A69D2B219463D
:102ADC000120FFF7E9FBFB6ADBB2403BDBB27A6912
:102AEC00D2B219460120FFF7DFFB6B4AFB6A134495
:102AFC001B782033DBB2BA69D2B219460120FFF73A
:102B0C00D3FB654AFB6A13441B784033DBB2FA698A
:102B1C00D2B219460120FFF7C7FB5F4AFB6A134488
:102B2C001B786033DBB23A6AD2B219460120FFF748
:102B3C00BBFB594AFB6A13441B78803BDBB27A6AB5
:102B4C00D2B219460120FFF7AFFB534AFB6A13447C
:102B5C001B78203BDBB2BA6AD2B219460120FFF7D0
:102B6C00A3FBFB6A0133FB62FB6A082B7FF777AF91
:102B7C000023FB6284E0474AFB6A13441B78203332
:102B8C00DBB23A68D2B219460220FFF78DFB414AFC
:102B9C00FB6A13441B784033DBB27A68D2B2194615
:102BAC000220FFF781FB3B4AFB6A13441B7860331E
:102BBC00DBB2BA68D2B219460220FFF775FB354A70
:102BCC00FB6A13441B78803BDBB2FA68D2B219461D
:102BDC000220FFF769FB2F4AFB6A13441B78203B4A
:102BEC00DBB23A69D2B219460220FFF75DFBFB6AF1
:102BFC00DBB2403BDBB27A69D2B219460220FFF756
:102C0C0053FB254AFB6A13441B782033DBB2BA69A9
:102C1C00D2B219460220FFF747FB1F4AFB6A134446
:102C2C001B784033DBB2FA69D2B219460220FFF7A7
:102C3C003BFB194AFB6A13441B786033DBB23A6ADC
:102C4C00D2B219460220FFF72FFB134AFB6A13443A
:102C5C001B78803BDBB27A6AD2B219460220FFF7AE
:102C6C0023FB0D4AFB6A13441B78203BDBB2BA6A88
:102C7C00D2B219460220FFF717FBFB6A0133FB6245
:102C8C00FB6A082B7FF777AF0023FB628BE000BF5A
:102C9C00D035000808000020140000208C4AFB6A84
:102CAC0013441B782033DBB23A68D2B219460320A6
:102CBC00FFF7FAFA864AFB6A13441B784033DBB2FF
:102CCC007A68D2B219460320FFF7EEFA804AFB6A03
:102CDC0013441B786033DBB2BA68D2B219460320B6
:102CEC00FFF7E2FA7A4AFB6A13441B78803BDBB2AB
:102CFC00FA68D2B219460320FFF7D6FA744AFB6A77
:102D0C0013441B78203BDBB23A69D2B2194603203C
:102D1C00FFF7CAFAFB6ADBB2403BDBB27A69D2B28C
:102D2C0019460320FFF7C0FA6A4AFB6A13441B7862
:102D3C002033DBB2BA69D2B219460320FFF7B4FADA
:102D4C00644AFB6A13441B784033DBB2FA69D2B293
:102D5C0019460320FFF7A8FA5E4AFB6A13441B7856
:102D6C006033DBB23A6AD2B219460320FFF79CFA01
:102D7C00584AFB6A13441B78803BDBB27A6AD2B2A6
:102D8C0019460320FFF790FA524AFB6A13441B784A
:102D9C00203BDBB2BA6AD2B219460320FFF784FAA1
:102DAC00FB6A0133FB62FB6A082B7FF777AF0023CA
:102DBC00FB6284E0464AFB6A13441B782033DBB287
:102DCC003A68D2B219460420FFF76EFA404AFB6A01
:102DDC0013441B784033DBB27A68D2B21946042014
:102DEC00FFF762FA3A4AFB6A13441B786033DBB292
:102DFC00BA68D2B219460420FFF756FA344AFB6A75
:102E0C0013441B78803BDBB2FA68D2B2194604201B
:102E1C00FFF74AFA2E4AFB6A13441B78203BDBB2BD
:102E2C003A69D2B219460420FFF73EFAFB6ADBB2CC
:102E3C00403BDBB27A69D2B219460420FFF734FA70
:102E4C00244AFB6A13441B782033DBB2BA69D2B232
:102E5C0019460420FFF728FA1E4AFB6A13441B7814
:102E6C004033DBB2FA69D2B219460420FFF71CFAE0
:102E7C00184AFB6A13441B786033DBB23A6AD2B24D
:102E8C0019460420FFF710FA124AFB6A13441B7808
:102E9C00803BDBB27A6AD2B219460420FFF704FAFF
:102EAC000C4AFB6A13441B78203BDBB2BA6AD2B2E1
:102EBC0019460420FFF7F8F9FB6A0133FB62FB6A41
:102ECC00082B7FF777AF00BF00BF3037BD46B0BDD2
:102EDC00080000201400002080B582B000AFFDF780
:102EEC002FF900F093F800F03BF900F0D5F800F062
:102EFC0005F900237B600BE07B683A4A99184FF088
:102F0C00FF3301223848FEF75DF97B6801337B60A3
:102F1C007B68082BF0DD012234493548FEF7D5F9E2
:102F2C00012234493048FEF7D0F901224FF47E419A
:102F3C003148FDF7CFFCFFF755FDFFF76BFD002384
:102F4C003B6046233B6013E03B68DBB200227F21F1
:102F5C001846FFF723FC4FF4FA70FDF753F93B6862
:102F6C00DBB27F211846FFF7C1FB3B6801333B60A6
:102F7C003B68492BE8DD012201212048FDF7AAFC22
:102F8C003220FDF73FF9002201211C48FDF7A2FC7D
:102F9C001B4B1A781B4B1B78DBB29A421AD0184B7E
:102FAC001B785A1CD1B2164A11701A46164B9B5CF0
:102FBC00DBB21846FEF72EFF114B1B78632B02D9A0
:102FCC000F4B00221A7001224FF400410B48FDF701
:102FDC0081FCDDE700224FF400410848FDF77AFC44
:102FEC00D6E700BF600000203801002081010020DE
:102FFC00F000002082010020000C0140000801407C
:10300C00E9010020E80100208401002080B590B087
:10301C0000AF07F1180328220021184600F0BEFA71
:10302C003B1D00221A605A609A60DA601A61012313
:10303C00BB614FF48033FB6100233B620123BB6215
:10304C0002237B634FF48033BB634FF4E013FB63C9
:10305C0007F118031846FDF755FC0346002B01D069
:10306C0000F054F90F237B600223BB600023FB604C
:10307C004FF480633B6100237B613B1D02211846AA
:10308C00FDF7C2FE0346002B01D000F03FF900BF54
:10309C004037BD4680BD000080B500AF154B164AC9
:1030AC001A60144B47F612225A60124B00229A6097
:1030BC00104B0022DA600F4B00221A610D4B0422D8
:1030CC005A610C4B00229A610A4B0022DA610948C2
:1030DC00FEF728F80346002B01D000F017F9002268
:1030EC0000212520FDF789F92520FDF7A2F900BF65
:1030FC0080BD00BFF00000200038014080B500AF5B
:10310C00154B164A1A60144B4FF416525A60124B58
:10311C0000229A60104B0022DA600F4B00221A61D9
:10312C000D4B0C225A610C4B00229A610A4B002267
:10313C00DA610948FDF7F6FF0346002B01D000F0D9
:10314C00E5F8002200212620FDF757F92620FDF78F
:10315C0070F900BF80BD00BF380100200044004062
:10316C0080B588B000AF07F1100300221A605A60D6
:10317C009A60DA603C4B9B693B4A43F010039361C5
:10318C00394B9B6903F01003FB60FB68364B9B6962
:10319C00354A43F020039361334B9B6903F02003C2
:1031AC00BB60BB68304B9B692F4A43F004039361AF
:1031BC002D4B9B6903F004037B607B682A4B9B6956
:1031CC00294A43F008039361274B9B6903F00803DA
:1031DC003B603B6800224FF400512448FDF77AFB1A
:1031EC00002249F6F3012248FDF774FB00224FF64A
:1031FC00FB312048FDF76EFB01224FF480611D4826
:10320C00FDF768FB4FF400533B6101237B61002306
:10321C00BB610223FB6107F1100319461348FDF74C
:10322C00D5F949F6F3033B6101237B610023BB61B4
:10323C000223FB6107F1100319460D48FDF7C6F98F
:10324C004FF6FB733B6101237B610023BB610223BF
:10325C00FB6107F1100319460648FDF7B7F900BFEB
:10326C002037BD4680BD00BF001002400010014059
:10327C0000080140000C014080B582B000AF7860BE
:10328C007B681B68184A93421CD1184B1B78902BF7
:10329C0013D8174B1B78DBB25A1CD1B2144A1170DD
:1032AC001A46124B1978134B9954114B1B78DBB2FD
:1032BC00632B02D90E4B00221A7001220B490E48C7
:1032CC00FEF703F87B681B680C4A934207D10C4B42
:1032DC0002221A7001220B490B48FDF7F6FF00BFC2
:1032EC000837BD4680BD00BF003801408101002079
:1032FC00E801002084010020F00000200044004080
:10330C0080010020820100203801002080B400AF31
:10331C0000BFBD4680BC704780B483B000AF0E4B7D
:10332C009B690D4A43F0010393610B4B9B6903F0BE
:10333C0001037B607B68084BDB69074A43F08053D1
:10334C00D361054BDB6903F080533B603B6800BFE6
:10335C000C37BD4680BC70470010024080B58AB067
:10336C0000AF786007F1180300221A605A609A6067
:10337C00DA607B681B683F4A93423AD13E4B9B69AB
:10338C003D4A43F4804393613B4B9B6903F4804378
:10339C007B617B69384B9B69374A43F0040393612B
:1033AC00354B9B6903F004033B613B694FF400739D
:1033BC00BB610223FB6103237B6207F118031946EF
:1033CC002E48FDF703F94FF48063BB610023FB61CA
:1033DC0000233B6207F1180319462848FDF7F6F85D
:1033EC00002200212520FDF708F82520FDF721F803
:1033FC003CE07B681B68224A934237D11E4BDB6949
:10340C001D4A43F40033D3611B4BDB6903F40033D7
:10341C00FB60FB68184B9B69174A43F004039361EC
:10342C00154B9B6903F00403BB60BB680423BB61B1
:10343C000223FB6103237B6207F1180319460F4833
:10344C00FDF7C4F80823BB610023FB6100233B623A
:10345C0007F1180319460948FDF7B8F800220021B6
:10346C002620FCF7CAFF2620FCF7E3FF00BF283715
:10347C00BD4680BD003801400010024000080140EC
:10348C000044004080B400AFFEE780B400AFFEE71C
:10349C0080B400AFFEE780B400AFFEE780B400AFAD
:1034AC00FEE780B400AF00BFBD4680BC704780B45F
:1034BC0000AF00BFBD4680BC704780B400AF00BFFA
:1034CC00BD4680BC704780B500AFFCF77FFE00BFE7
:1034DC0080BD000080B500AF0248FDF71BFF00BFA8
:1034EC0080BD00BFF000002080B500AF0248FDF7A2
:1034FC0011FF00BF80BD00BF3801002080B400AFB9
:10350C0000BFBD4680BC7047FFF7F8FF0B480C4965
:10351C000C4A002302E0D458C4500433C4188C4223
:10352C00F9D3094A094C002301E013600432A2428A
:10353C00FBD300F00FF8FFF7CFFC70470000002022
:10354C00700000203036000870000020EC010020D4
:10355C00FEE7000070B500260C4D0D4C641BA4104A
:10356C00A64209D100F022F800260A4D0A4C641B31
:10357C00A410A64205D170BD55F8043B98470136FE
:10358C00EEE755F8043B98470136F2E72836000879
:10359C0028360008283600082C360008034602445A
:1035AC00934200D1704703F8011BF9E7F8B500BF4F
:1035BC00F8BC08BC9E467047F8B500BFF8BC08BC08
:0435CC009E46704760
:1035D000A100000027000000740000008F00000020
:1035E0000000000002000000A100000080000000B8
:1035F000650000002A00000000000000020304052E
:10360000060708090A0B0C0D0E0F1010010200002E
:103610000000000000000000010203040607080982
:08362000000000000102030498
:043628003101000864
:04362C000D01000884
:10363000100000000100000000010208090A10113A
:10364000120000000304050B0C0D131415000000FC
:1036500034010000460100005A0100006E01000024
:10366000840100009B010000B4010000CE010000B5
:10367000E9010000060200002502000046020000E9
:10368000680200008D020000B4020000DD020000AC
:10369000706167652031FFFFFF0000000024F40027
:0400000508003515A5
:00000001FF
