:020000040800F2
:10000000280800208901000845180008ED1600089E
:1000100041180008450200087D1900080000000092
:100020000000000000000000000000004D18000863
:100030004902000800000000491800085118000893
:10004000A3010008A3010008A3010008A301000800
:10005000A3010008A3010008A3010008A3010008F0
:10006000A3010008A3010008A3010008A3010008E0
:10007000A3010008A3010008A3010008A3010008D0
:10008000A3010008A3010008A3010008A3010008C0
:10009000A3010008A3010008A3010008A3010008B0
:1000A000A3010008A3010008A3010008A3010008A0
:1000B000A3010008A3010008A3010008A301000890
:1000C000A3010008A3010008A3010008A301000880
:1000D000A30100086519000871190008A3010008B0
:1000E000A3010008A3010008A301000800F002F822
:1000F00000F03AF80AA090E8000C82448344AAF188
:100100000107DA4501D100F02FF8AFF2090EBAE885
:100110000F0013F0010F18BFFB1A43F0010318473B
:10012000D42A0000F42A0000103A24BF78C878C10D
:10013000FAD8520724BF30C830C144BF04680C60ED
:10014000704700000023002400250026103A28BF35
:1001500078C1FBD8520728BF30C148BF0B60704739
:100160001FB51FBD10B510BD00F031F81146FFF7E7
:10017000F7FF02F0A7FB00F04FF803B4FFF7F2FF20
:1001800003BC00F057F800000948804709480047C1
:10019000FEE7FEE7FEE7FEE7FEE7FEE7FEE7FEE737
:1001A000FEE7FEE704480549054A064B7047000094
:1001B00055180008ED00000828020020280800203B
:1001C00028040020280400207047704770477546B7
:1001D00000F02CF8AE4605006946534620F00700B3
:1001E000854618B020B5FFF7DDFFBDE820404FF091
:1001F00000064FF000074FF000084FF0000BAC4630
:10020000ACE8C009ACE8C009ACE8C009ACE8C0097A
:1002100021F007018D46704710B50446AFF300800A
:100220002046BDE81040FFF7A8BF00000048704717
:100230007000002001491820ABBEFEE72600020036
:1002400070470000FEE7000070470000014690F88C
:100250002100022816D10868D1E90FC3026822F0F4
:100260000E020260026822F001020260012000FA20
:1002700003F2CCF8042081F821000020002281F84C
:1002800020207047042088630120002281F820206C
:100290007047000080B590F82110022924D102682F
:1002A000116821F00E0111602F211368C4F20201C0
:1002B0008A4240F20401C4F2020123F001031360F8
:1002C00016DD3023C4F202039A421DD04423C4F247
:1002D00002039A421CD05823C4F202039A421DD151
:1002E0004FF4803322E000BF04218163012080BDF0
:1002F0000823C4F202039A420ED01C23C4F2020364
:100300009A420BD1102311E04FF480730EE000BF2E
:100310004FF480530AE000BF012307E001F1680CAD
:100320004FF08073624508BF4FF480130B600121CA
:1003300080F82110426B002180F820100AB190470C
:100340000021084680BD0000B0B5044600F024F945
:10035000054640F21400C2F200000078611C18BF8C
:10036000044400BF00F018F9401BA042FAD3B0BD0E
:100370002DE9F04F82B00E68002E00F0038141F2AB
:100380000042C4F20102042340F2004E904208BF32
:1003900003234FF6FF7CC4F2010E009300240123D7
:1003A000C1F2100C4FF0000A4FF0000949E000BF05
:1003B000012704F00C030F229A402BEA020207FAED
:1003C00003F34FEA9A051A4346F82520D1F804B002
:1003D00040F20C455FEACB22DEF8082054BF22EA47
:1003E000080242EA0802C4F20105CEF808202A6891
:1003F0005FEA8B2354BF22EA080242EA08022A601D
:100400005FEA8B33DEF8042054BF22EA080242EA96
:1004100008025FEACB33CEF80420DEF800204FF06C
:10042000010354BF22EA080242EA0802CEF8002083
:100430000E680AF1010A36FA0AF204F1040400F027
:10044000A18003FA0AF816EA080FF1D04E68664553
:1004500012DC122E56D8DFE806F0350B454955550B
:1004600055555555555555555555554D510000BF88
:10047000D1F80C9046E000BF4FF6FF72C1F22102A6
:1004800096420FDC0022C1F2110296421AD00022DD
:10049000C1F21202964215D00022C1F22102964208
:1004A00010D02FE00022C1F2220296420AD0002290
:1004B000C1F23102964205D00022C1F232029642C8
:1004C00020D100BF8A684AB1012A14BFC0F8148045
:1004D000C0F810804FF0080914E000BF4FF0040985
:1004E00010E000BFCA6802F108090BE04FF00009F4
:1004F00008E000BFCA6802F1040903E0CA6802F11B
:100500000C0900BF22460646BAF1080F24BF203A64
:10051000043637680F25954027EA050509FA02F2E7
:100520002A433260CA79D2067FF582AF41F21803BE
:10053000C4F202031A68AEF57E7642F001021A6038
:100540001A6802F001020192019A2AF0030256F899
:1005500002B040F60002C4F20102904210D040F610
:100560000042C4F2010290423FF422AF41F2000285
:10057000C4F20102009F904208BF022719E700BFA2
:10058000002716E702B0BDE8F08F0000002A08BF80
:10059000090401617047000040F22420C2F200000B
:1005A0000068704740F2140040F22421C2F20000BB
:1005B000C2F2000100780A68104408607047000029
:1005C00080B542F20000C4F20200016841F010015F
:1005D0000160032000F086F8002000F005F800F02C
:1005E00027F8002080BD000070B540F21406C2F26A
:1005F000000640F25C013278C2F200014FF47A73D7
:100600000968B3FBF2F20446B1FBF2F1084600F0D0
:100610005BFB0F2C4FF0010508D838B94FF0FF30C5
:1006200021460022002500F031F87460284670BD94
:1006300082B041F21800C4F20200016841F00101E9
:100640000160016801F0010101910199416841F0E7
:1006500080514160406800F080500090009802B0E6
:1006600070470000002848BF7047C1B200F01F006B
:10067000012202FA00F04EF20012CEF2000242EA2B
:10068000D10121F0030108607047000010B54EF65B
:100690000C5CCEF2000CDCF80030C3F3022E8EF0BE
:1006A0000704042C28BF0424BEF103034FF0FF3ECF
:1006B0000EFA04F438BF0023A14399400EFA03F365
:1006C0009A43114300F00F0200F160430901043A1C
:1006D00003F564436244002848BF02F10C0319701B
:1006E00010BD00004EF60C51CEF200010A684FF624
:1006F000FF031A4060F30A2242F0806040F0FD7070
:10070000086070472DE9F04381B0002800F0858033
:1007100042F20008C4F202080446D8F800000D4670
:1007200000F0070088420CD2D8F8000020F0070043
:100730002843C8F80000D8F8000000F00700A842DD
:100740006BD1206841F204098107C4F2020917D570
:10075000410705D5D9F8001041F4E061C9F800104F
:10076000010705D5D9F8001041F46051C9F800100F
:10077000D9F80010A26821F0F0011143C9F8001067
:10078000C00741D1D8F8000000F00700A8420CD9FA
:10079000D8F8000020F007002843C8F80000D8F877
:1007A000000000F00700A84237D12068410707D5B4
:1007B000D9F80010E26821F4E0611143C9F8001093
:1007C000000708D5D9F80000216920F4605040EAFC
:1007D000C100C9F80000D9F8002002F00C00082878
:1007E00041F20020C0F27A0050D142F6E433C2F365
:1007F0008341C0F60003595CD2033BD440F600109D
:10080000C0F23D00484341E0606802280AD0012858
:100810002AD159F8041C890308D4012001B0BDE88D
:10082000F08300BF59F8041C8901F6D5D9F80010EF
:1008300021F003010843C9F80000FFF7ADFE0646AA
:1008400041F28837D9F80000616800F00C00B0EB85
:10085000810F97D0FFF7A0FE801BB842F2D903208A
:1008600001B0BDE8F08300BF59F8041C8907D4D556
:10087000DCE700BFD9F8002042F6E233C2F3404281
:10088000C0F600039A5C4843B0FBF2F0D9F80010C0
:1008900042F6CA32C1F30311C0F60002515C40F2C5
:1008A0005C0220FA01F140F21800C2F20000006878
:1008B000C2F200021160FFF797FE002001B0BDE810
:1008C000F083000040F25C0041F20401C2F200003B
:1008D000C4F202010068096842F6DA32C1F302216B
:1008E000C0F60002515CC8407047000040F25C0056
:1008F00041F20401C2F20000C4F20201006809687A
:1009000042F6DA32C1F3C221C0F60002515CC8409F
:10091000704700002DE9F04182B0002868D00446FD
:10092000007841F20006C007C4F2020625D07068C4
:1009300000F00C0004281BD0706800F00C000828A0
:1009400002D17068C00313D46068002800F0688189
:10095000B0F5A02F00F07C81B0F5803F00F07C81E5
:10096000306820F480303060306820F4802076E1F8
:100970003068800301D56068D0B32078800718D52F
:10098000706810F00C0F07D0706800F00C00082899
:100990006ED17068C0036BD43068800702D52069BF
:1009A000012825D13068616920F0F80040EAC100D3
:1009B0003060207800071FD42078400732D4E569E2
:1009C00095B1706800F00C00082840F08F80012D70
:1009D0000ED07068216A00F480328A4208D1616AC0
:1009E00000F47010884203D1002002B0BDE8F0810D
:1009F000012002B0BDE8F081A069002862D000208B
:100A0000C4F242200121C0F88014FFF7C5FD05465D
:100A1000706A800700F18C80FFF7BEFD401B022842
:100A2000F6D92AE1F06910F0805808D1F06940F059
:100A30008050F061F06900F080500090009847F21B
:100A40000007C4F200073868C00529D4386840F4AC
:100A500080703860FFF7A0FD054600BF3868C0050C
:100A60001ED4FFF799FD401B6428F7D905E100BFAC
:100A70002069002840F20000C4F2422000F0828089
:100A800001210160FFF788FD054600BF306880073F
:100A90003FF588AFFFF780FD401B0228F6D9ECE058
:100AA000E068002800F08080052800F09780012889
:100AB00000F09880306A20F001003062306A20F047
:100AC000040092E00020C4F242200021C0F880140B
:100AD000FFF762FD054600BF706A80077FF56CAFC7
:100AE000FFF75AFD401B0228F6D9C6E00027C4F2E2
:100AF000422700203866FFF74FFD022D05460BD137
:100B00003068800140F1BE80FFF746FD401B02289F
:100B10004FF00300F4D968E7306880017FF564AFD7
:100B2000FFF73AFD401B02284FF00300F4D95CE7C1
:100B300040F25C00C2F20000006844F6D351C1F2FA
:100B40006201A0FB0101480A019000BF00BF0198AB
:100B5000411E002801913FF42FAF00BF0198411EB4
:100B6000002801913FF428AF00BF0198411E0028E2
:100B700001913FF421AF00BF0198411E002801916F
:100B8000E4D119E700210160FFF706FD054600BF2B
:100B9000306880077FF50DAFFFF7FEFC401B022891
:100BA0004FF00300F4D920E7306A20F001003062F2
:100BB000306A20F004003062FFF7EEFC054641F297
:100BC000883700BF306A800720D5FFF7E5FC401B5F
:100BD000B8424FF00300F5D907E700BF306A40F094
:100BE00004003062306A40F001003062FFF7D4FC4C
:100BF000054641F2883700BF306A800706D4FFF708
:100C0000CBFC401BB842F7D937E000BFB8F1000F6A
:100C10007FF4D5AEF06920F08050F061CFE600BFE0
:100C2000306820F480303060306820F480203060FC
:100C3000FFF7B2FC054600BF306880037FF59DAE2C
:100C4000FFF7AAFC401B64284FF00300F4D9CCE660
:100C5000306840F480203060306840F4803030608C
:100C6000FFF79AFC054600BF306880033FF585AE6C
:100C7000FFF792FC401B6428F6D9032002B0BDE8C0
:100C8000F08100BF206AB0F5803F05D17168A2688D
:100C900021F40031114371607168626A21F47411AA
:100CA00011430843706001203866FFF775FC044665
:100CB000306880013FF598AEFFF76EFC001B0228FC
:100CC0004FF00300F4D990E6411E0020B0EB116F05
:100CD0001CBF012070474EF21002CEF2000251609C
:100CE0004EF62351CEF20001F0230B7007219060E5
:100CF000116070477047000070470000B0B582B0C7
:100D0000044600680168C368426901F02F05202D80
:100D100003F0200506D12DB1204602B0BDE8B04059
:100D200000F0A0BD5FEA017C1EBF02F0010E03F4DB
:100D3000907212EB0E0253D1226B012A05D111F0F1
:100D4000100218BF13F0100236D10A0622D513F094
:100D500080021FD094F8411021293FD1A168B1F53C
:100D6000805F03D12169002900F07082216A4A1C4A
:100D7000226209784160E18C01390A04E1842DD1B5
:100D8000C16821F08001C160C16841F04001C160CB
:100D900002B0B0BD490621D513F040011ED0C16894
:100DA00021F04001C1602021204684F8411002B0AA
:100DB000BDE8B04000F098BC0021019101680191AC
:100DC0004168019101994069400613D4A08DE18DDD
:100DD000E28D002A18BF884240F0BA8102B0B0BD4F
:100DE000CA0718BF13F4807240F0B6804A0700F1BA
:100DF000B980BEE0E06B016849688AB2002AEDD094
:100E0000A38D9A42EAD2E1858069202800F09C8077
:100E1000206850E8030F216820F4807041E8030245
:100E2000DAB1206850E8030F216820F4807041E8AF
:100E3000030292B1206850E8030F216820F480700B
:100E400041E803024AB1206850E8030F216820F40A
:100E5000807041E80302002ADAD1206850E8050FCB
:100E6000216820F0010041E80502DAB1206850E86D
:100E7000050F216820F0010041E8050292B12068C9
:100E800050E8050F216820F0010041E805024AB151
:100E9000206850E8050F216820F0010041E80502B4
:100EA000002ADAD1206850E8050F216820F04000C0
:100EB00041E80502DAB1206850E8050F216820F00A
:100EC000400041E8050292B1206850E8050F216812
:100ED00020F0400041E805024AB1206850E8050FC3
:100EE000216820F0400041E80502002ADAD12020E4
:100EF00084F8420000202063206850E8030F216836
:100F000020F0100041E80302DAB1206850E8030F36
:100F1000216820F0100041E8030292B1206850E8F7
:100F2000030F216820F0100041E803024AB1206855
:100F300050E8030F216820F0100041E80302002A66
:100F4000DAD1E06BFFF782F902206063A08DE18DBA
:100F5000401A81B2204674E1626C42F00102626480
:100F60004A0706D5BEF1000F03D0626C42F00202C0
:100F700062648A0706D5BEF1000F03D0626C42F0AE
:100F800004026264BCF1000F09D545EA0E02B2FA10
:100F900082F2520903D1626C42F008026264626C10
:100FA000002A3FF41BAF11F0200118BF002D03D021
:100FB000204600F057FC20684069616C00F040005A
:100FC00001F00801401800F0B58000BF206850E82B
:100FD000030F216820F4907041E80302BAB320683F
:100FE00050E8030F216820F4907041E8030272B3C7
:100FF000206850E8030F216820F4907041E8030254
:101000002AB3206850E8030F216820F4907041E86B
:101010000302002ADAD11AE0206850E8050F21689F
:1010200020F0010041E80502DAB1206850E8050F20
:10103000216820F0010041E8050292B1206850E8E3
:10104000050F216820F0010041E805024AB120683F
:1010500050E8050F216820F0010041E80502002A50
:10106000DAD1206B012824D1206850E8030F2168D1
:1010700020F0100041E80302DAB1206850E8030FC5
:10108000216820F0100041E8030292B1206850E886
:10109000030F216820F0100041E803024AB12068E4
:1010A00050E8030F216820F0100041E80302002AF5
:1010B000DAD1202084F842000020206320684069B3
:1010C00040063FD5206850E8050F216820F0400019
:1010D00041E80502DAB1206850E8050F216820F0E8
:1010E000400041E8050292B1206850E8050F2168F0
:1010F00020F0400041E805024AB1206850E8050FA1
:10110000216820F0400041E80502002ADAD1E06BB6
:10111000C0B141F65901C0F600014163FFF7BAF8CA
:1011200000283FF45BAEE06B416B02B0BDE8B0401D
:10113000084700BF2046FFF7DFFD0020606402B0D3
:10114000B0BD00BF204602B0BDE8B040FFF7D4BD3F
:10115000401A216851E8031F226821F4907142E887
:101160000313DBB1216851E8031F226821F4907159
:1011700042E8031393B1216851E8031F226821F468
:10118000907142E803134BB1216851E8031F2268B4
:1011900021F4907142E80313002BDAD1216851E861
:1011A000051F226821F0010142E80513DBB1216827
:1011B00051E8051F226821F0010142E8051393B1AF
:1011C000216851E8051F226821F0010142E805135A
:1011D0004BB1216851E8051F226821F0010142E866
:1011E0000513002BDAD1202184F84210002121635D
:1011F000216851E8031F226821F0100142E803131F
:10120000DBB1216851E8031F226821F0100142E898
:10121000031393B1216851E8031F226821F01001E4
:1012200042E803134BB1216851E8031F226821F003
:10123000100142E80313002BDAD1022281B22046CA
:10124000626302B0BDE8B040FFF754BD216A31F8D7
:10125000022B6FF35F22426021628CE5002804BFFD
:101260000120704710B5044690F8410028B90020CD
:1012700084F84000204600F063F8242084F8410000
:101280002068D4E90212C36823F40053C3600369E1
:1012900023F440531A430261D4E904231143C26882
:1012A000194341F20C639A431143C1604169A26939
:1012B00021F44071114343F60002C4F2010290424E
:1012C000416103D0FFF7FEFA02E000BFFFF70EFB1B
:1012D0006268192148439100B0FBF1F048F21F51B8
:1012E000C5F2EB11A0FB01235A094FF69C73C0F61F
:1012F000FF7302FB0300322303EB0010A0FB01018C
:10130000F02303EA5113206803EB0212C1F34311E7
:1013100011448160016921F490410161416921F02A
:101320002A014161C16841F40051C16000202021BF
:10133000606484F8411084F84210606310BD0000BE
:10134000F0B585B0006844F20041C4F20001884263
:101350004FF00001CDE90311CDE9011122D043F690
:101360000001C4F20101884253D141F21800C4F2D5
:1013700002000168252441F48041016001684FF4B6
:10138000806701F4804100910099016841F00401F7
:101390000160006800F00400009000984FF40070B5
:1013A00019E000BF41F21800C4F20200416826248F
:1013B00041F4003141604168082701F40031009197
:1013C0000099016841F004010160006800F0040028
:1013D0000090009804200190022040F60005029041
:1013E0000320C4F2010501AE049028463146FEF701
:1013F000BFFF0020CDE90200284631460197FEF7E5
:10140000B7FF204600210022FFF740F92046FFF7F2
:1014100029F905B0F0BD000090F84230202B1CBF28
:101420000220704700294FF0010318BF002A01D1A4
:101430001846704700230363816222218285C2859A
:10144000436480F842100169006819B1C16841F431
:101450008071C1604169002341F001014161C168AF
:1014600041F02001C160184670470000704700003D
:101470002DE9F04381B0044690F84100202840F067
:10148000B180884600294FF0010000F0D680164652
:10149000002A00F0D2800020606421201D4684F8DC
:1014A0004100FFF779F8A684E684A1680646B1F505
:1014B000805F03D12069002800F0988047464FF0F4
:1014C0000008E18C2068002900F0968005F10109F0
:1014D0000BE000BF47B317F8011B4160E18C0139F5
:1014E000E184E18C002900F0878001680906F1D4CD
:1014F000B9F1000F0AD0EDB1FFF74EF8801BA842FA
:1015000018D8206801680906F6D5E3E701680906DE
:10151000E0D4016809065CBF01685FEA0161D9D4C3
:1015200001680906F2D5D5E738F8021B00276FF3EA
:101530005F21D2E7206850E8030F216820F4D070C3
:1015400041E80302BAB3206850E8030F216820F491
:10155000D07041E8030272B3206850E8030F21689D
:1015600020F4D07041E803022AB3206850E8030F4A
:10157000216820F4D07041E80302002ADAD11AE091
:10158000206850E8050F216820F0010041E80502BD
:10159000DAB1206850E8050F216820F0010041E829
:1015A000050292B1206850E8050F216820F0010083
:1015B00041E805024AB1206850E8050F216820F093
:1015C000010041E80502002ADAD1202084F8410018
:1015D00084F84200002084F84000032001B0BDE8F8
:1015E000F08300BF022001B0BDE8F0830027E18C4A
:1015F000206800297FF46AAF0168490619D4FDB15B
:10160000691C0DD10168490613D4016849065CBF05
:1016100001685FEA41610CD401684906F2D508E02F
:10162000FEF7BAFF801BA8420AD82068006840066F
:10163000F6D5202084F84100002001B0BDE8F083F9
:10164000206850E8030F216820F4D07041E80302BD
:10165000002A3ED0206850E8030F216820F4D070A3
:1016600041E80302AAB3206850E8030F216820F480
:10167000D07041E8030262B3206850E8030F21688C
:1016800020F4D07041E80302002AD9D121E000BF44
:10169000206850E8050F216820F0010041E80502AC
:1016A000002A3FF492AF206850E8050F216820F02F
:1016B000010041E80502002A3FF487AF206850E8A6
:1016C000050F216820F0010041E80502002A3FF4DF
:1016D0007CAF206850E8050F216820F0010041E848
:1016E0000502002AD4D170E770470000FEE7000031
:1016F000B0B541B2B1F1FF3F1CDD40F21C14C2F2A3
:1017000000046178012929D121784A1CD3B22144EF
:10171000022B227088713CD1E179A07900296DD02B
:10172000012100F089FFA079E179002200F0E6F9BB
:101730006BE000BF082181EA1010062829D8DFE8F5
:1017400000F00537283D4528510000BF40F21C102D
:10175000C2F200004FF480713EE000BFA178012981
:101760000CD121784A1CD3B22144022B22708871FB
:101770000FD1A079E17900F003F946E0E178012981
:101780000AD121784A1CD3B22144022B22708871DD
:101790003BD00020B0BD00BF217901293AD121788A
:1017A0004A1CD3B22144022B22708871F1D12CE063
:1017B00040F21C10C2F2000001210DE040F21C10AA
:1017C000C2F200004FF0807106E000BF40F21C1032
:1017D000C2F200004FF48031C0F8011000214171C5
:1017E0000020B0BD40F21C10C2F200000021C0F881
:1017F0000110012141710020B0BD00BF002100F0A7
:101800001BFFA079E17900F0BBF800202070E08098
:101810000020B0BD61790129BBD121784A1CD3B227
:101820002144022B22708871B3D1E279002000217B
:10183000002500F063F92570E5800020B0BD0000B0
:10184000FEE70000FEE70000704700007047000060
:10185000FEF7A8BE70470000406A0021C185C18420
:10186000FFF74ABA81B090F84210222921D183684B
:101870000246B3F5805F09D152F8281F52F8183C90
:10188000002B63D003685B680AE000BF52F8281F92
:1018900013B90369002BF5D003685B6803F07F037D
:1018A0000B70116801311160C18D01390A04C185C5
:1018B00002D001B0704700BF0168CA6822F0200260
:1018C000CA60CA6822F48072CA604A6922F00102C2
:1018D0004A61202180F8421000214163026B012AF5
:1018E0003CD10163016851E8031F026821F0100137
:1018F00042E80313DBB1016851E8031F026821F0DD
:10190000100142E8031393B1016851E8031F026814
:1019100021F0100142E803134BB1016851E8031FA5
:10192000026821F0100142E80313002BDAD10168AC
:101930000A68D20606D5002200920A680092496819
:1019400000910099818D01B0FFF7D4B90268526807
:101950006FF35F2221F8022B8162A5E701B0FFF748
:1019600085BD000040F27810C2F20000FFF7C6B952
:1019700040F2D400C2F20000FFF7C0B9FEE7000059
:1019800070B540F23015C2F2000569780446814214
:101990000FD1287801280CD10120A0210022002697
:1019A00000F03AFC0120B021002200F035FC2E604E
:1019B000AE80687AA0420FD1287A01280CD101208C
:1019C000A1210022002600F027FC0120B1210022E5
:1019D00000F022FCAE60AE81687CA0420FD1287C72
:1019E00001280CD10120A2210022002600F014FCC5
:1019F0000120B221002200F00FFC2E61AE82687E31
:101A0000A0420FD1287E01280CD10120A321002261
:101A1000002600F001FC0120B321002200F0FCFBB5
:101A2000AE61AE8395F82100A04210D195F8200058
:101A300001280CD10120A4210022002600F0ECFB9B
:101A40000120B421002200F0E7FB2E62AE8495F85D
:101A50002900A04210D195F8280001280CD10120BE
:101A6000A5210022002600F0D7FB0120B52100228D
:101A700000F0D2FBAE62AE8595F83100A04210D1E5
:101A800095F8300001280CD10120A6210022002663
:101A900000F0C2FB0120B621002200F0BDFB2E6346
:101AA000AE8695F83900A04210D195F8380001288B
:101AB0000CD10120A7210022002600F0ADFB01205F
:101AC000B721002200F0A8FBAE63AE8795F8410075
:101AD000A04211D195F8400001280DD10120A82184
:101AE0000022002400F098FB0120B821002200F021
:101AF00093FB2C64A5F84440002070BD2DE9F0470D
:101B0000002873D040F2301CC2F2000C9CF8003068
:101B10004FF00008002B00F011819CF80130834247
:101B2000634600F00C81634613F8087F4FF001080C
:101B3000002F00F004815F78874200F00081634647
:101B400013F8107F4FF00208002F00F0F8805F7844
:101B5000874200F0F480634613F8187F4FF00308C3
:101B6000002F00F0EC805F78874200F0E880634649
:101B700013F8207F4FF00408002F00F0E0805F781A
:101B8000874200F0DC80634613F8287F4FF0050899
:101B9000002F00F0D4805F78874200F0D080634649
:101BA00013F8307F4FF00608002F00F0C8805F78F0
:101BB000874200F0C480634613F8387F4FF007086F
:101BC000002F00F0BC805F78874200F0B880634649
:101BD00013F8407F4FF00808002F00F0B0805F78C6
:101BE000874200F0AC800020BDE8F087B2F14004ED
:101BF00054D240F23010C2F2000040F21C0A4DF6FE
:101C00007D79C2F14004851C6FF008064FF0AB08E7
:101C1000C2F2000AC7F6F75904E000BF013605F129
:101C20000805E0D215F8020C0128F7D115F8010CCF
:101C300006F1090700FB08F1C90A01EB4101A0EB1D
:101C400081000230C0B20AEB80015AF8200051F83E
:101C5000081C411A01FB04F282FB092301FB143129
:101C60004A1102EBD1710844A7F160012880C2B289
:101C7000C9B2012000F0D0FAA878697800F03700E6
:101C800001F0030141EA800000F12002A7F15000B9
:101C9000C1B2012000F0C0FAC0E700BF40F230102E
:101CA000C2F2000040F21C0A42F28309851C6FF068
:101CB00008064FF0AB08C2F2000AC8F2082903E098
:101CC000013605F108058ED215F8020C0128F7D16E
:101CD00015F8010C06F1090700FB08F1C90A01EB30
:101CE0004101A0EB81000230C0B20AEB80015AF83A
:101CF00020008968091A01FB04F282FB092301FB19
:101D000004314A1102EBD1710844A7F16001288027
:101D1000C2B2C9B2012000F07FFAA878697800F059
:101D2000370001F0030141EA800000F12002A7F131
:101D30005000C1B2012000F06FFAC1E76346AB2743
:101D40004743FF0A07EB4706A0EB8606B41C0126B3
:101D50000CEBC8051E707B1E2E4640F21C0706F8D1
:101D6000043FE3B2C2F2000706F8030C57F8230061
:101D70006FEA51013F2A71700AD8C2F1400107EBA6
:101D8000830252F8083C6FF03E02074607E000BFAE
:101D9000A2F1400107EB830297683F220346FB1A3A
:101DA000594391FBF2F10844688008F1A001C2B2E6
:101DB000012000F031FA3078EA7800F0370002F0C4
:101DC000030242EA800008F1B00100F12002012084
:101DD00000F022FA0020BDE8F087000010B540F6C0
:101DE0000044C4F2010420464FF480610022FEF753
:101DF000CDFB0A20FEF7A8FA20464FF480610122AD
:101E0000FEF7C4FB0120BDE81040FEF79DBA0000BC
:101E1000F0B581B040F60044C4F2010420464FF40E
:101E2000007100220025FEF7B1FB20690126C0F2F7
:101E3000FA163043206120464FF4C0510022FEF7CD
:101E4000A5FB20464FF4C0510122FEF79FFB204620
:101E50004FF400710122FEF799FB20694027C0F280
:101E6000BB173843206120464FF4C0510022FEF7D3
:101E70008DFB20464FF4C0510122FEF787FB204620
:101E80004FF400710022FEF781FB20694FF42051CE
:101E90003043206120460022FEF778FB20464FF4B5
:101EA00020510122FEF772FB20464FF400710122FF
:101EB000FEF76CFB20694FF4205138432061204627
:101EC0000022FEF763FB20464FF420510122FEF76B
:101ED0005DFB20464FF400710022FEF757FB20699E
:101EE0004FF490413043206120460022FEF74EFB24
:101EF00020464FF490410122FEF748FB20464FF464
:101F000000710122FEF742FB20694FF490413843F3
:101F1000206120460022FEF739FB20464FF4904115
:101F20000122FEF733FB20464FF400710022FEF73A
:101F30002DFB20694FF408413043206120460022E8
:101F4000FEF724FB20464FF408410122FEF71EFB5A
:101F500020464FF400710122FEF718FB20694FF470
:101F600008413843206120460022FEF70FFB20463F
:101F70004FF408410122FEF709FB40F20004C2F2CF
:101F8000000400BF605DA1222030C1B201206619AB
:101F900000F042F9605D27224030C1B2012000F01C
:101FA0003BF9605D74226030C1B2012000F034F969
:101FB000605D8F2280F08001012000F02DF9605DCE
:101FC00000222038C1B2012000F026F9A5F140001E
:101FD000C1B20120022200F01FF9707AA122203044
:101FE000C1B2012000F018F9707A80224030C1B2ED
:101FF000012000F011F9707A65226030C1B2012031
:1020000000F00AF9707A2A2280F08001012000F0A5
:1020100003F9707A00222038C1B2012000F0FCF8E8
:102020000135092DAED10025605DA1222030C1B25D
:102030000220661900F0F0F8605D27224030C1B23E
:10204000022000F0E9F8605D74226030C1B2022025
:1020500000F0E2F8605D8F2280F08001022000F045
:10206000DBF8605D00222038C1B2022000F0D4F815
:10207000A5F14000C1B20220022200F0CDF8707A32
:10208000A1222030C1B2022000F0C6F8707A80226E
:102090004030C1B2022000F0BFF8707A6522603093
:1020A000C1B2022000F0B8F8707A2A2280F08001D4
:1020B000022000F0B1F8707A00222038C1B202206C
:1020C00000F0AAF80135092DAED10025605DA122EE
:1020D0002030C1B20320661900F09EF8605D27220F
:1020E0004030C1B2032000F097F8605D7422603088
:1020F000C1B2032000F090F8605D8F2280F0800173
:10210000032000F089F8605D00222038C1B203206E
:1021100000F082F8A5F14000C1B20320022200F0D5
:102120007BF8707AA1222030C1B2032000F074F84D
:10213000707A80224030C1B2032000F06DF8707ACE
:1021400065226030C1B2032000F066F8707A2A225E
:1021500080F08001032000F05FF8707A00222038C0
:10216000C1B2032000F058F80135092DAED1002589
:10217000605DA1222030C1B20420661900F04CF845
:10218000605D27224030C1B2042000F045F8605D58
:1021900074226030C1B2042000F03EF8605D8F22EE
:1021A00080F08001042000F037F8605D00222038C4
:1021B000C1B2042000F030F8A5F14000C1B2042003
:1021C000022200F029F8707AA1222030C1B2042046
:1021D00000F022F8707A80224030C1B2042000F072
:1021E0001BF8707A65226030C1B2042000F014F848
:1021F000707A2A2280F08001042000F00DF8707AB5
:1022000000222038C1B2042000F006F80135092D63
:10221000AED101B0F0BD00000138032884BF012019
:1022200070472DE9F04F83B00F4640F60049154640
:10223000C4F20109DFE810F0040052017C00D8006C
:1022400048464FF400710022FEF7A0F9F8074FF05E
:1022500001004FF0010E029008BF4FF4803EBA0714
:102260004FF0020258BF4FF400327B074FF00803D3
:1022700058BF4FF400233E074FF0100158BF4FF4F2
:102280008011FE064FF0200658BF4FF40016BC0622
:102290004FF040044FFA87FC58BF4FF480047F068C
:1022A0004FF080074FF0807058BF4FF40007BCF12B
:1022B000000F48BF4FF48070104470441844084425
:1022C0003044D9F810C02044384340EA0C00C9F823
:1022D000100048464FF4C05100224FF0080A4FF05A
:1022E000100B4FF4C057FEF751F948464FF4C05158
:1022F0000122FEF74BF948464FF400710122FEF728
:1023000045F9E8074FF001084FF0020408BF4FF409
:102310008038A80758BF4FF40034680758BF4FF4FF
:10232000002A280758BF4FF4801B05F010014EE12A
:1023300005F01000019048464FF4007100224FFA5A
:1023400087F8FEF723F9F8074FF001004FF0010C72
:10235000029008BF4FF4803CB9074FF0020158BF0C
:102360004FF400317A074FF0080258BF4FF40022B3
:102370003B074FF0100358BF4FF48013FE064FF099
:10238000200658BF4FF40016BC064FF0400458BF5B
:102390004FF480047F064FF080074FF0807058BFE5
:1023A0004FF40007B8F1000F48BF4FF480700844A5
:1023B0006044104418443044D9F810E020443843B5
:1023C00040EA0E00C9F8100048464FF49041002240
:1023D0004FF0080A4FF0100B4FF49047FEF7D6F875
:1023E00048464FF49041D4E078B2009005F01000D8
:1023F000019048464FF40071002200230293FEF73B
:10240000C5F8F8074FF0010C08BF4FF4803CB9073E
:102410004FF0020A58BF4FF4003A7A074FF0080213
:1024200058BF4FF400223B074FF0100358BF4FF442
:102430008013FC064FF0200458BF4FF40014BE0672
:102440004FF0400658BF4FF480067F064FF08007DC
:1024500058BF4FF4000700994FF08070002948BF23
:102460004FF4807050446044104418442044D9F81C
:1024700010E03044384340EA0E00C9F810004846E6
:102480004FF4084100224FF001084FF0100B4FF0BD
:10249000080A4FF40847FEF779F848464FF4084118
:1024A0000122FEF773F848464FF400710122FEF74F
:1024B0006DF8E80701994FF0020408BF4FF4803827
:1024C000A80758BF4FF40034680758BF4FF4002ADC
:1024D000280758BF4FF4801B79E000BF05F01000BB
:1024E000019048464FF4007100224FFA87F8FEF73A
:1024F0004DF8F8074FF001004FF0010C029008BFB3
:102500004FF4803CB9074FF0020158BF4FF400313F
:102510007A074FF0080258BF4FF400223B074FF0F4
:10252000100358BF4FF48013FE064FF0200658BF2B
:102530004FF40016BC064FF0400458BF4FF480041F
:102540007F064FF080074FF0807058BF4FF40007B0
:10255000B8F1000F48BF4FF4807008446044104445
:1025600018443044D9F810E02044384340EA0E00C3
:10257000C9F8100048464FF4205100224FF0080AD5
:102580004FF0100B4FF42057FEF700F848464FF479
:1025900020510122FDF7FAFF48464FF40071012255
:1025A000FDF7F4FFE8074FF0010801994FF002042E
:1025B00008BF4FF48038A80758BF4FF400346807AD
:1025C00058BF4FF4002A280758BF4FF4801B202023
:1025D000002908BF4FF40010A9064FF0400158BF72
:1025E0004FF480016A064FF080026BB24FF08076A4
:1025F00058BF4FF40002002B48BF4FF480762643AB
:1026000046EA080646EA0A0646EA0B063043D9F8C7
:102610001030084310431843C9F8100048463946A3
:102620000022FDF7B3FF484639460122FDF7AEFF11
:10263000029803B0BDE8F08F0129034616D00029A7
:1026400040F0128140F2241CC2F2000C9CF8000001
:10265000984261D140F600000023C4F2010001213C
:1026600000228CF80030FDF791BF00BF40F2241C1F
:10267000C2F2000C9CF80000984200F0F58000289F
:102680006AD09CF80100984200F0EE80002800F02B
:102690008D809CF80200984200F0E680002800F04F
:1026A0009F809CF80300984200F0DE80002800F034
:1026B000C1809CF80400984200F0D680002800F009
:1026C000D5809CF80500984200F0CE80002800F0EC
:1026D000D7809CF80600984200F0C680002800F0E1
:1026E000D9809CF80700984200F0BE80002800F0D6
:1026F000DD809CF80800984200F0B680002818BFE2
:10270000704740F60000C4F201004FF4004101227E
:102710008CF80830FDF73ABF9CF8010098420BD1C5
:1027200040F600000023C4F20100022100228CF8D0
:102730000130FDF72BBF00BF9CF80200984215D175
:1027400040F600000023C4F20100102100228CF8A2
:102750000230FDF71BBF00BF40F60000C4F20100CD
:10276000012101228CF80030FDF710BF9CF8030016
:1027700098420BD140F600000023C4F20100202152
:1027800000228CF80330FDF701BF00BF9CF8040065
:10279000984215D140F600000023C4F20100402108
:1027A00000228CF80430FDF7F1BE00BF40F60000B7
:1027B000C4F20100022101228CF80130FDF7E6BECF
:1027C0009CF80500984215D140F600000023C4F2A1
:1027D0000100802100228CF80530FDF7D7BE00BF34
:1027E00040F60000C4F20100102101228CF80230F2
:1027F000FDF7CCBE9CF8060098420BD140F60000D5
:102800000023C4F201004FF4006100228CF806306E
:10281000FDF7BCBE9CF80700984215D140F60000B9
:102820000023C4F201004FF4805100228CF80730DD
:10283000FDF7ACBE40F60000C4F2010020210122E9
:102840008CF80330FDF7A2BE9CF8080098420BD12B
:1028500040F600000023C4F201004FF400410022C2
:102860008CF80830FDF792BE704700BF40F60000BC
:10287000C4F20100402101228CF80430FDF786BE2D
:1028800040F60000C4F20100802101228CF80530DE
:10289000FDF77CBE40F60000C4F201004FF4006179
:1028A00001228CF80630FDF771BE00BF40F6000033
:1028B000C4F201004FF4805101228CF80730FDF77B
:1028C00065BE000090B040F60004C4F20104FDF7BC
:1028D00077FE00264FF480304FF0020ACDE907065C
:1028E000CDE90DA04FF4E0104FF001090F9006A8BC
:1028F000CDE90B66CDE90966CDF81890CDF82890A2
:10290000FEF708F80F20CDE9010A4FF48060CDE909
:10291000040601A802210396FDF7F4FE41F2180017
:10292000C4F20200016804F5006541F01001016085
:102930000168002201F010010691069901684FF428
:10294000005741F020010160016801F0200106916B
:102950000699016841F004010160016801F0040179
:1029600006910699016841F00801016000684FF482
:10297000005100F00800069006982846FDF706FE74
:10298000204649F6F301002249F6F30BFDF7FEFD60
:1029900004F5806840464FF6FB310022FDF7F6FD56
:1029A00040464FF480610122FDF7F0FDCDE9067944
:1029B00006AF28463946CDE9086AFDF7D9FC20461E
:1029C0003946CDE906B9CDE9086AFDF7D1FC4FF6E5
:1029D000FB70CDE9060940463946CDE9086AFDF7A6
:1029E000C7FC40F2781904F54050C2F2000947F6DE
:1029F0001221042289E843004846C9E90366C9E96F
:102A00000526C9F81C60FEF729FC252000210022BC
:102A1000FDF73CFE2520FDF725FE40F2D007C2F26F
:102A20000007A4F544403D4645F8040F4FF4165006
:102A30000C21C5E901062846C5E90366C5E9051666
:102A4000EE61FEF70BFC262000210022FDF71EFEA2
:102A50002620FDF707FE40F2600AC2F2000A28466F
:102A6000514601224FF0FF33FEF702FD0AF101014A
:102A7000284601224FF0FF33FEF7FAFC0AF102016B
:102A8000284601224FF0FF33FEF7F2FC0AF1030162
:102A9000284601224FF0FF33FEF7EAFC0AF1040159
:102AA000284601224FF0FF33FEF7E2FC0AF1050150
:102AB000284601224FF0FF33FEF7DAFC0AF1060147
:102AC000284601224FF0FF33FEF7D2FC0AF107013E
:102AD000284601224FF0FF33FEF7CAFC0AF1080135
:102AE000284601224FF0FF33FEF7C2FCA91E4846DC
:102AF0000122FEF791FC691E28460122FEF78CFC9C
:102B000040464FF47E410122FDF740FDFFF766F994
:102B1000FFF77EF946207F210022FEF7EFFF4FF4FA
:102B2000FA70FDF711FC46207F21FEF729FF4720B0
:102B30007F210022FEF7E2FF4FF4FA70FDF704FC5C
:102B400047207F21FEF71CFF48207F210022FEF74F
:102B5000D5FF4FF4FA70FDF7F7FB48207F21FEF711
:102B60000FFF49207F210022FEF7C8FF4FF4FA70C3
:102B7000FDF7EAFB49207F21FEF702FF20460121F5
:102B80000122FDF703FD3220FDF7DEFB2046012187
:102B90000022FDF7FBFC40F2C015C2F200050EE07A
:102BA000411C7970285CFEF7A3FD78780122642827
:102BB00028BF7E7020464FF40041FDF7E7FC3978CE
:102BC00078788842ECD10022F4E700000000000091
:102BD00000000102030406070809000000000102CA
:102BE0000304010202030405060708090A0B0C0D81
:102BF0000E0F1010182C00080000002070000000BC
:102C000028010008882C000870000020B807000088
:102C1000440100080000000000010208090A101128
:102C2000120304050B0C0D13141500000100000025
:102C30001000000034010000460100005A010000AD
:102C40006E010000840100009B010000B40100003F
:102C5000CE010000E901000006020000250200008C
:102C600046020000680200008D020000B40200006D
:102C7000DD0200000024F400706167652031FFFF71
:082C8000FF000000000000004D
:04000005080000ED02
:00000001FF
